:100000000C9435010C9466010C9466010C94660105
:100010000C9466010C9466010C9466010C946601C4
:100020000C9466010C9466010C9466010C946601B4
:100030000C9466010C9466010C9466010C946601A4
:100040000C9466010C9466010C9466010C94660194
:100050000C9466010C9466010C9466010C941504D2
:100060000C9466010C9489040C945F040C94660152
:100070000C9466010C9466010C9466010C94660164
:100080000C9466010C9466010C9466010C94660154
:100090000C9466010C9466010C9466010C94660144
:1000A0000C9466010C9466010C9466010C94660134
:1000B0000C9466010C9466010C9466010C94660124
:1000C0000C9466010C9466010C9466010C94660114
:1000D0000C9466010C9466010C9466010C94660104
:1000E0000C9466010C941C030C94B3020C94C6018E
:1000F0000C94AF010C94C1010C94AB010C94B301AE
:100100000C94D6020C94A1010C94C7010C94B90173
:100110000C9457060C9486020C9469030C94CB0142
:100120000C9494010C9490010C949B010C94A501E7
:100130000C94E4020C9498010C94BD010C9486017B
:100140000C94C2020C948C010000200023002600B5
:1001500029002C002F0032000001000003010601DD
:10016000090100002100240027002A002D00300092
:10017000330001010000040107010A010000220010
:10018000250028002B002E00310034000201000061
:10019000050108010B010505050507050808080804
:1001A000020202020A0A080804040404010101010F
:1001B000010101010303030303030303040707070A
:1001C0000C0C0C0C0C0C0C0C0202020206060606AF
:1001D000060606060B0B0B0B0B0B0B0B010210207C
:1001E000200808102040102040800201020108046D
:1001F0000201010204081020408080402010080401
:100200000201800402018040201008040201080459
:10021000020101020408102040800102040810209D
:10022000408000000A0B02090C0D0E0807030401B0
:1002300000000000000000000000000000000000BE
:10024000000000000000000000000000000012118B
:10025000100000000000000000000000000000008E
:100260000000000000000000570611241FBECFEF61
:10027000D1E2DEBFCDBF00E00CBF12E0A0E0B2E0F3
:10028000E4E9FDE000E00BBF02C007900D92A0334F
:10029000B107D9F722E0A0E3B2E001C01D92A43E6D
:1002A000B207E1F711E0C5E3D1E000E006C0219715
:1002B0000109802FFE010E94A606C433D10780E009
:1002C0000807A9F70E94BF040C94C8060C9400000C
:1002D0008150823108F05AC0E82FF0E08827EC58AE
:1002E000FE4F8F4F0C94A6069401980186018C0155
:1002F0009001C6019B01A101A501AB01AF01B301B2
:10030000B901BD01C601C101C701CB0180918000C7
:100310008F77809380000895809180008F7DF9CF42
:1003200080918000877FF5CF84B58F7784BD089555
:1003300084B58F7DFBCF8091B0008F778093B00024
:1003400008958091B0008F7DF9CF809190008F77D4
:10035000809390000895809190008F7DF9CF8091D7
:100360009000877FF5CF8091A0008F778093A000C9
:1003700008958091A0008F7DF9CF8091A000877FA4
:10038000F5CF809120018F7780932001089580918F
:1003900020018F7DF9CF80912001877FF5CF1F93BA
:1003A000CF93DF93282F30E0F901EE5DFD4F84916C
:1003B000F901E452FE4FD491F901EA56FE4FC4917F
:1003C000CC23A9F0162F81110E946801EC2FF0E0D8
:1003D000EE0FFF1FE458FE4FA591B4918FB7F8942C
:1003E000EC91111108C0D095DE23DC938FBFDF9113
:1003F000CF911F910895DE2BF8CFCF93DF9390E03C
:10040000FC01E452FE4F24918A569E4FFC018491D8
:100410008823D1F090E0880F991FFC01EE59FE4F20
:10042000A591B491FC01E458FE4FC591D49161119E
:100430000EC09FB7F8948C91E22FE0958E238C9399
:100440002881E223E8839FBFDF91CF9108958FB782
:10045000F894EC91E22BEC938FBFF6CF3FB7F89472
:100460008091430290914402A0914502B0914602CE
:1004700026B5A89B05C02F3F19F00196A11DB11DFF
:100480003FBFBA2FA92F982F8827BC01CD01620F3B
:10049000711D811D911D42E0660F771F881F991FF6
:1004A0004A95D1F708958F929F92AF92BF92CF92C3
:1004B000DF92EF92FF926B017C010E942E024B01B2
:1004C0005C01C114D104E104F104B9F00E942E02D0
:1004D000681979098A099B09683E7340810591056D
:1004E00080F321E0C21AD108E108F10888EE880EF5
:1004F00083E0981EA11CB11CE4CFFF90EF90DF9029
:10050000CF90BF90AF909F908F900895AF92BF9281
:10051000CF92DF92EF92FF920F931F93CF93DF93CF
:100520006C017B018B01040F151FEB015E01AE18FE
:10053000BF08C017D10759F06991D601ED91FC9120
:100540000190F081E02DC6011995892B79F7C5013D
:10055000DF91CF911F910F91FF90EF90DF90CF909F
:10056000BF90AF900895FC01538D448D252F30E04E
:10057000842F90E0821B930B541710F0CF960895B0
:1005800001970895FC01918D828D981761F0A28DDD
:10059000AE0FBF2FB11D5D968C91928D9F5F9F73A3
:1005A000928F90E008958FEF9FEF0895FC01918D59
:1005B000828D981731F0828DE80FF11D858D90E0C6
:1005C00008958FEF9FEF0895FC01918D228D892F63
:1005D00090E0805C9F4F821B91098F73992708954B
:1005E00087E492E00E94E40221E0892B09F420E0F4
:1005F000822F0895FC01A48DA80FB92FB11DA35A15
:10060000BF4F2C91848D90E001968F739927848F32
:10061000A689B7892C93A089B1898C918370806455
:100620008C93938D848D981306C00288F389E02DF6
:1006300080818F7D80830895EF92FF920F931F93A7
:10064000CF93DF93EC0181E0888F9B8D8C8D981385
:100650001AC0E889F989808185FF15C09FB7F89491
:10066000EE89FF896083E889F989808183708064DD
:1006700080839FBF81E090E0DF91CF911F910F9128
:10068000FF90EF900895F62E0B8D10E00F5F1F4F37
:100690000F731127E02E8C8D8E110CC00FB607FC46
:1006A000FACFE889F989808185FFF5CFCE010E94D4
:1006B000FA02F1CFEB8DEC0FFD2FF11DE35AFF4F46
:1006C000F0829FB7F8940B8FEA89FB898081806262
:1006D000CFCFCF93DF93EC01888D8823B9F0AA891F
:1006E000BB89E889F9898C9185FD03C0808186FDED
:1006F0000DC00FB607FCF7CF8C9185FFF2CF80813C
:1007000085FFEDCFCE010E94FA02E9CFDF91CF91B4
:10071000089580E090E0892B29F00E94F002811179
:100720000E94000080E090E0892B49F080E090E09A
:10073000892B29F00E94000081110E94000080E0B6
:1007400090E0892B49F080E090E0892B29F00E940D
:10075000000081110E94000080E090E0892B49F0A8
:1007600080E090E0892B29F00E94000081110C9418
:10077000000008958F929F92AF92BF920F931F93A4
:10078000CF93DF93CDB7DEB7A1970FB6F894DEBF56
:100790000FBECDBF19A2423008F44AE08E010F5DB2
:1007A0001F4F842E912CB12CA12CA50194010E94E5
:1007B0008406E62FB901CA01EA3044F5E05DD801AC
:1007C000EE938D01232B242B252B79F790E080E0ED
:1007D000109769F0FD0101900020E9F73197AF0112
:1007E0004A1B5B0BBD0187E492E00E948602A19642
:1007F0000FB6F894DEBF0FBECDBFDF91CF911F9132
:100800000F91BF90AF909F908F900895E95CD7CFE4
:10081000FC0101900020E9F73197AF01481B590B0B
:10082000BC0187E492E00C9486021F920F920FB6EF
:100830000F9211242F933F938F939F93AF93BF9366
:1008400080913F0290914002A0914102B0914202FA
:1008500030913E0223E0230F2D3758F50196A11D5C
:10086000B11D20933E0280933F0290934002A093DB
:100870004102B09342028091430290914402A091C0
:100880004502B09146020196A11DB11D809343021D
:1008900090934402A0934502B0934602BF91AF915A
:1008A0009F918F913F912F910F900FBE0F901F90AE
:1008B000189526E8230F0296A11DB11DD2CF1F92D5
:1008C0000F920FB60F9211240BB60F922F933F93F6
:1008D0004F935F936F937F938F939F93AF93BF9348
:1008E000EF93FF9387E492E00E94FA02FF91EF9169
:1008F000BF91AF919F918F917F916F915F914F9138
:100900003F912F910F900BBE0F900FBE0F901F9035
:1009100018951F920F920FB60F9211240BB60F92DB
:100920002F938F939F93EF93FF93E0915702F09152
:1009300058028081E0915D02F0915E0282FD1DC04F
:100940009081809160028F5F8F7320916102821786
:1009500041F0E0916002F0E0E95BFD4F958F8093FC
:100960006002FF91EF919F918F912F910F900BBE9D
:100970000F900FBE0F901F9018958081F2CF789442
:1009800084B5826084BD84B5816084BD85B5826094
:1009900085BD85B5816085BD80916E008160809345
:1009A0006E001092810080918100826080938100AE
:1009B00080918100816080938100809180008160BE
:1009C000809380008091B10084608093B100809119
:1009D000B00081608093B00080919100826080932C
:1009E00091008091910081608093910080919000AE
:1009F0008160809390008091A10082608093A1002B
:100A00008091A10081608093A1008091A00081600D
:100A10008093A000809121018260809321018091C8
:100A20002101816080932101809120018160809368
:100A3000200180917A00846080937A0080917A000E
:100A4000826080937A0080917A00816080937A003E
:100A500080917A00806880937A001092C100E091C2
:100A60005702F091580282E08083E0915302F091A6
:100A700054021082E0915502F09156028FEC80836F
:100A800010925F02E0915B02F0915C0286E080834D
:100A9000E0915902F0915A02808180618083E09157
:100AA0005902F0915A02808188608083E091590256
:100AB000F0915A02808180688083E0915902F09120
:100AC0005A0280818F7D808360E086E30E94FD0171
:100AD00061E085E00E94FD0161E084E00E94FD018B
:100AE00061E083E00E94FD0161E087E00E94FD017A
:100AF00061E086E00E94FD0192E1292E92E0392E0C
:100B00000CEC11E022E0C22ED12CE12CF12C3CE3C4
:100B1000832E912CA12CB12C4EE1442E512C612C12
:100B2000712CE8E5F2E08491F101D491F801C491CF
:100B300070E060E0CC2399F081110E946801EC2FF5
:100B4000F0E0EE0FFF1FE85BFE4FA591B4918C9192
:100B5000D82391E080E009F490E0692F782F70931A
:100B60003D0260933C02072E000C880B990B4AE073
:100B70000E94BA0382E192E00E94080480913C0244
:100B800090913D02892B09F06DC086E192E00E94B0
:100B900008048092380290923902A0923A02B092F0
:100BA0003B02C0923402D0923502E0923602F092BB
:100BB00037024092300250923102609232027092BB
:100BC000330261E086E00E94CF0160E087E00E948E
:100BD000CF0161E085E00E94CF0160E084E00E94E7
:100BE000CF0160E083E00E94CF0120913802309174
:100BF000390240913A0250913B02A8EEB3E00E94C4
:100C0000AE060E94530260E085E00E94CF0161E0E1
:100C100084E00E94CF0160ED77E080E090E00E94E8
:100C2000530260E084E00E94CF0161E083E00E9413
:100C3000CF0160E086E00E94CF0161E087E00E9482
:100C4000CF01209130023091310240913202509117
:100C50003302A8EEB3E00E94AE060E9453020E9447
:100C600089035FCF84E292E00E9408048AE590E065
:100C7000A0E0B0E08093380290933902A0933A024A
:100C8000B0933B02C0923402D0923502E092360219
:100C9000F09237028AE090E0A0E0B0E0809330026A
:100CA00090933102A0933202B09333028ACFE7E4EB
:100CB000F2E01382128288EE93E0A0E0B0E0848339
:100CC0009583A683B78384E092E09183808385EC4B
:100CD00090E09587848784EC90E09787868780EC06
:100CE00090E0918B808B81EC90E0938B828B82ECF7
:100CF00090E0958B848B86EC90E0978B868B118EA1
:100D0000128E138E148E0895A1E21A2EAA1BBB1BFD
:100D1000FD010DC0AA1FBB1FEE1FFF1FA217B307C7
:100D2000E407F50720F0A21BB30BE40BF50B661FDD
:100D3000771F881F991F1A9469F7609570958095A1
:100D400090959B01AC01BD01CF010895EE0FFF1FEF
:100D5000881F8BBF0790F691E02D19940E94B90669
:100D6000A59F900DB49F900DA49F800D911D1124FF
:100D70000895A29FB001B39FC001A39F700D811D74
:100D80001124911DB29F700D811D1124911D089594
:040D9000F894FFCF05
:100D9400000000001C038602B3026903E402C202DD
:100DA400D602202D20004D4F444F20524547554C2C
:100DB40041520A004D4F444F204E4F4348450000D6
:00000001FF
